{
  "contractName": "RentalContract",
  "abi": [
    {
      "inputs": [],
      "stateMutability": "nonpayable",
      "type": "constructor"
    },
    {
      "anonymous": false,
      "inputs": [
        {
          "indexed": true,
          "internalType": "uint256",
          "name": "contractId",
          "type": "uint256"
        }
      ],
      "name": "ContractActivated",
      "type": "event"
    },
    {
      "anonymous": false,
      "inputs": [
        {
          "indexed": true,
          "internalType": "uint256",
          "name": "contractId",
          "type": "uint256"
        }
      ],
      "name": "ContractApproved",
      "type": "event"
    },
    {
      "anonymous": false,
      "inputs": [
        {
          "indexed": true,
          "internalType": "uint256",
          "name": "contractId",
          "type": "uint256"
        },
        {
          "indexed": true,
          "internalType": "address",
          "name": "landlord",
          "type": "address"
        },
        {
          "indexed": true,
          "internalType": "address",
          "name": "tenant",
          "type": "address"
        }
      ],
      "name": "ContractCreated",
      "type": "event"
    },
    {
      "anonymous": false,
      "inputs": [
        {
          "indexed": true,
          "internalType": "uint256",
          "name": "contractId",
          "type": "uint256"
        }
      ],
      "name": "ContractExpired",
      "type": "event"
    },
    {
      "anonymous": false,
      "inputs": [
        {
          "indexed": true,
          "internalType": "uint256",
          "name": "contractId",
          "type": "uint256"
        },
        {
          "indexed": false,
          "internalType": "string",
          "name": "reason",
          "type": "string"
        }
      ],
      "name": "ContractTerminated",
      "type": "event"
    },
    {
      "anonymous": false,
      "inputs": [
        {
          "indexed": true,
          "internalType": "uint256",
          "name": "contractId",
          "type": "uint256"
        },
        {
          "indexed": false,
          "internalType": "uint256",
          "name": "amount",
          "type": "uint256"
        },
        {
          "indexed": false,
          "internalType": "uint256",
          "name": "timestamp",
          "type": "uint256"
        }
      ],
      "name": "PaymentReceived",
      "type": "event"
    },
    {
      "inputs": [],
      "name": "owner",
      "outputs": [
        {
          "internalType": "address",
          "name": "",
          "type": "address"
        }
      ],
      "stateMutability": "view",
      "type": "function",
      "constant": true
    },
    {
      "inputs": [
        {
          "internalType": "uint256",
          "name": "",
          "type": "uint256"
        }
      ],
      "name": "rentalAgreements",
      "outputs": [
        {
          "internalType": "uint256",
          "name": "contractId",
          "type": "uint256"
        },
        {
          "internalType": "address",
          "name": "landlord",
          "type": "address"
        },
        {
          "internalType": "address",
          "name": "tenant",
          "type": "address"
        },
        {
          "internalType": "uint256",
          "name": "propertyId",
          "type": "uint256"
        },
        {
          "internalType": "uint256",
          "name": "rentAmount",
          "type": "uint256"
        },
        {
          "internalType": "uint256",
          "name": "depositAmount",
          "type": "uint256"
        },
        {
          "internalType": "uint256",
          "name": "startDate",
          "type": "uint256"
        },
        {
          "internalType": "uint256",
          "name": "endDate",
          "type": "uint256"
        },
        {
          "internalType": "uint256",
          "name": "lastPaymentDate",
          "type": "uint256"
        },
        {
          "internalType": "enum RentalContract.ContractState",
          "name": "state",
          "type": "uint8"
        },
        {
          "internalType": "string",
          "name": "termsHash",
          "type": "string"
        }
      ],
      "stateMutability": "view",
      "type": "function",
      "constant": true
    },
    {
      "inputs": [
        {
          "internalType": "uint256",
          "name": "_contractId",
          "type": "uint256"
        },
        {
          "internalType": "address",
          "name": "_landlord",
          "type": "address"
        },
        {
          "internalType": "address",
          "name": "_tenant",
          "type": "address"
        },
        {
          "internalType": "uint256",
          "name": "_propertyId",
          "type": "uint256"
        },
        {
          "internalType": "uint256",
          "name": "_rentAmount",
          "type": "uint256"
        },
        {
          "internalType": "uint256",
          "name": "_depositAmount",
          "type": "uint256"
        },
        {
          "internalType": "uint256",
          "name": "_startDate",
          "type": "uint256"
        },
        {
          "internalType": "uint256",
          "name": "_endDate",
          "type": "uint256"
        },
        {
          "internalType": "string",
          "name": "_termsHash",
          "type": "string"
        }
      ],
      "name": "createContract",
      "outputs": [],
      "stateMutability": "nonpayable",
      "type": "function"
    },
    {
      "inputs": [
        {
          "internalType": "uint256",
          "name": "_contractId",
          "type": "uint256"
        }
      ],
      "name": "approveContract",
      "outputs": [],
      "stateMutability": "nonpayable",
      "type": "function"
    },
    {
      "inputs": [
        {
          "internalType": "uint256",
          "name": "_contractId",
          "type": "uint256"
        }
      ],
      "name": "makePayment",
      "outputs": [],
      "stateMutability": "payable",
      "type": "function",
      "payable": true
    },
    {
      "inputs": [
        {
          "internalType": "uint256",
          "name": "_contractId",
          "type": "uint256"
        },
        {
          "internalType": "string",
          "name": "_reason",
          "type": "string"
        }
      ],
      "name": "terminateContract",
      "outputs": [],
      "stateMutability": "nonpayable",
      "type": "function"
    },
    {
      "inputs": [
        {
          "internalType": "uint256",
          "name": "_contractId",
          "type": "uint256"
        }
      ],
      "name": "checkExpiration",
      "outputs": [],
      "stateMutability": "nonpayable",
      "type": "function"
    },
    {
      "inputs": [
        {
          "internalType": "uint256",
          "name": "_contractId",
          "type": "uint256"
        }
      ],
      "name": "getContractDetails",
      "outputs": [
        {
          "internalType": "address",
          "name": "landlord",
          "type": "address"
        },
        {
          "internalType": "address",
          "name": "tenant",
          "type": "address"
        },
        {
          "internalType": "uint256",
          "name": "propertyId",
          "type": "uint256"
        },
        {
          "internalType": "uint256",
          "name": "rentAmount",
          "type": "uint256"
        },
        {
          "internalType": "uint256",
          "name": "depositAmount",
          "type": "uint256"
        },
        {
          "internalType": "uint256",
          "name": "startDate",
          "type": "uint256"
        },
        {
          "internalType": "uint256",
          "name": "endDate",
          "type": "uint256"
        },
        {
          "internalType": "uint256",
          "name": "lastPaymentDate",
          "type": "uint256"
        },
        {
          "internalType": "enum RentalContract.ContractState",
          "name": "state",
          "type": "uint8"
        },
        {
          "internalType": "string",
          "name": "termsHash",
          "type": "string"
        }
      ],
      "stateMutability": "view",
      "type": "function",
      "constant": true
    }
  ],
  "bytecode": "0x608060405234801561001057600080fd5b5033600160006101000a81548173ffffffffffffffffffffffffffffffffffffffff021916908373ffffffffffffffffffffffffffffffffffffffff1602179055506122e6806100616000396000f3fe60806040526004361061007b5760003560e01c8063723931ca1161004e578063723931ca146101345780638da5cb5b1461015d578063ac06b0d814610188578063dbc6ab1f146101cf5761007b565b806327bce533146100805780634d6d6a9c146100a95780635114cb52146100ef57806362c35c011461010b575b600080fd5b34801561008c57600080fd5b506100a760048036038101906100a29190611567565b6101f8565b005b3480156100b557600080fd5b506100d060048036038101906100cb919061164d565b610629565b6040516100e69a99989796959493929190611797565b60405180910390f35b6101096004803603810190610104919061164d565b6108b9565b005b34801561011757600080fd5b50610132600480360381019061012d919061164d565b610c4e565b005b34801561014057600080fd5b5061015b6004803603810190610156919061164d565b610e14565b005b34801561016957600080fd5b50610172610f55565b60405161017f919061183a565b60405180910390f35b34801561019457600080fd5b506101af60048036038101906101aa919061164d565b610f7b565b6040516101c69b9a99989796959493929190611855565b60405180910390f35b3480156101db57600080fd5b506101f660048036038101906101f19190611907565b6110aa565b005b6000891161023b576040517f08c379a0000000000000000000000000000000000000000000000000000000008152600401610232906119d5565b60405180910390fd5b60008060008b81526020019081526020016000206000015414610293576040517f08c379a000000000000000000000000000000000000000000000000000000000815260040161028a90611a41565b60405180910390fd5b600073ffffffffffffffffffffffffffffffffffffffff168873ffffffffffffffffffffffffffffffffffffffff161415610303576040517f08c379a00000000000000000000000000000000000000000000000000000000081526004016102fa90611ad3565b60405180910390fd5b600073ffffffffffffffffffffffffffffffffffffffff168773ffffffffffffffffffffffffffffffffffffffff161415610373576040517f08c379a000000000000000000000000000000000000000000000000000000000815260040161036a90611b3f565b60405180910390fd5b8183106103b5576040517f08c379a00000000000000000000000000000000000000000000000000000000081526004016103ac90611bd1565b60405180910390fd5b600085116103f8576040517f08c379a00000000000000000000000000000000000000000000000000000000081526004016103ef90611c63565b60405180910390fd5b60006040518061016001604052808b81526020018a73ffffffffffffffffffffffffffffffffffffffff1681526020018973ffffffffffffffffffffffffffffffffffffffff168152602001888152602001878152602001868152602001858152602001848152602001600081526020016000600481111561047d5761047c611698565b5b8152602001838152509050806000808c81526020019081526020016000206000820151816000015560208201518160010160006101000a81548173ffffffffffffffffffffffffffffffffffffffff021916908373ffffffffffffffffffffffffffffffffffffffff16021790555060408201518160020160006101000a81548173ffffffffffffffffffffffffffffffffffffffff021916908373ffffffffffffffffffffffffffffffffffffffff160217905550606082015181600301556080820151816004015560a0820151816005015560c0820151816006015560e0820151816007015561010082015181600801556101208201518160090160006101000a81548160ff0219169083600481111561059c5761059b611698565b5b021790555061014082015181600a0190805190602001906105be9291906112d6565b509050508773ffffffffffffffffffffffffffffffffffffffff168973ffffffffffffffffffffffffffffffffffffffff168b7f56560a52c047ed21fd801bf0f345b23d9af696f7922ff8e63101af5d48caddab60405160405180910390a450505050505050505050565b6000806000806000806000806000606060008060008d815260200190815260200160002060405180610160016040529081600082015481526020016001820160009054906101000a900473ffffffffffffffffffffffffffffffffffffffff1673ffffffffffffffffffffffffffffffffffffffff1673ffffffffffffffffffffffffffffffffffffffff1681526020016002820160009054906101000a900473ffffffffffffffffffffffffffffffffffffffff1673ffffffffffffffffffffffffffffffffffffffff1673ffffffffffffffffffffffffffffffffffffffff1681526020016003820154815260200160048201548152602001600582015481526020016006820154815260200160078201548152602001600882015481526020016009820160009054906101000a900460ff1660048111156107705761076f611698565b5b600481111561078257610781611698565b5b8152602001600a8201805461079690611cb2565b80601f01602080910402602001604051908101604052809291908181526020018280546107c290611cb2565b801561080f5780601f106107e45761010080835404028352916020019161080f565b820191906000526020600020905b8154815290600101906020018083116107f257829003601f168201915b5050505050815250509050600081600001511415610862576040517f08c379a000000000000000000000000000000000000000000000000000000000815260040161085990611d30565b60405180910390fd5b80602001518160400151826060015183608001518460a001518560c001518660e001518761010001518861012001518961014001519a509a509a509a509a509a509a509a509a509a50509193959799509193959799565b60008060008381526020019081526020016000209050600081600001541415610917576040517f08c379a000000000000000000000000000000000000000000000000000000000815260040161090e90611d30565b60405180910390fd5b6001600481111561092b5761092a611698565b5b8160090160009054906101000a900460ff16600481111561094f5761094e611698565b5b148061099057506002600481111561096a57610969611698565b5b8160090160009054906101000a900460ff16600481111561098e5761098d611698565b5b145b6109cf576040517f08c379a00000000000000000000000000000000000000000000000000000000081526004016109c690611dc2565b60405180910390fd5b8060020160009054906101000a900473ffffffffffffffffffffffffffffffffffffffff1673ffffffffffffffffffffffffffffffffffffffff163373ffffffffffffffffffffffffffffffffffffffff1614610a61576040517f08c379a0000000000000000000000000000000000000000000000000000000008152600401610a5890611e54565b60405180910390fd5b60016004811115610a7557610a74611698565b5b8160090160009054906101000a900460ff166004811115610a9957610a98611698565b5b1415610b545780600501548160040154610ab39190611ea3565b341015610af5576040517f08c379a0000000000000000000000000000000000000000000000000000000008152600401610aec90611f91565b60405180910390fd5b60028160090160006101000a81548160ff02191690836004811115610b1d57610b1c611698565b5b0217905550817f73edfb7736e2a79d626edb978d46bcd467644e8a44cbe706358022b6a6d361ec60405160405180910390a2610b9c565b8060040154341015610b9b576040517f08c379a0000000000000000000000000000000000000000000000000000000008152600401610b9290612023565b60405180910390fd5b5b8060010160009054906101000a900473ffffffffffffffffffffffffffffffffffffffff1673ffffffffffffffffffffffffffffffffffffffff166108fc349081150290604051600060405180830381858888f19350505050158015610c06573d6000803e3d6000fd5b50428160080181905550817f243f8b521882d823492f47c974aec93c6b1f81e3f30a1eb6a6d18bd2fecf975b3442604051610c42929190612043565b60405180910390a25050565b60008060008381526020019081526020016000209050600081600001541415610cac576040517f08c379a0000000000000000000000000000000000000000000000000000000008152600401610ca390611d30565b60405180910390fd5b60006004811115610cc057610cbf611698565b5b8160090160009054906101000a900460ff166004811115610ce457610ce3611698565b5b14610d24576040517f08c379a0000000000000000000000000000000000000000000000000000000008152600401610d1b906120de565b60405180910390fd5b8060020160009054906101000a900473ffffffffffffffffffffffffffffffffffffffff1673ffffffffffffffffffffffffffffffffffffffff163373ffffffffffffffffffffffffffffffffffffffff1614610db6576040517f08c379a0000000000000000000000000000000000000000000000000000000008152600401610dad90612170565b60405180910390fd5b60018160090160006101000a81548160ff02191690836004811115610dde57610ddd611698565b5b0217905550817fd197ef70dfa5d30c3e023138d4396103a72967d6a6ab897fdd1eecb9427e7e4c60405160405180910390a25050565b60008060008381526020019081526020016000209050600081600001541415610e72576040517f08c379a0000000000000000000000000000000000000000000000000000000008152600401610e6990611d30565b60405180910390fd5b60026004811115610e8657610e85611698565b5b8160090160009054906101000a900460ff166004811115610eaa57610ea9611698565b5b14610eea576040517f08c379a0000000000000000000000000000000000000000000000000000000008152600401610ee1906121dc565b60405180910390fd5b8060070154421115610f515760048160090160006101000a81548160ff02191690836004811115610f1e57610f1d611698565b5b0217905550817f9325fbfd991d20e53f36adfe94b443a61b400da1d2fa18bc3c8dd6744c10a0fa60405160405180910390a25b5050565b600160009054906101000a900473ffffffffffffffffffffffffffffffffffffffff1681565b60006020528060005260406000206000915090508060000154908060010160009054906101000a900473ffffffffffffffffffffffffffffffffffffffff16908060020160009054906101000a900473ffffffffffffffffffffffffffffffffffffffff16908060030154908060040154908060050154908060060154908060070154908060080154908060090160009054906101000a900460ff169080600a01805461102790611cb2565b80601f016020809104026020016040519081016040528092919081815260200182805461105390611cb2565b80156110a05780601f10611075576101008083540402835291602001916110a0565b820191906000526020600020905b81548152906001019060200180831161108357829003601f168201915b505050505090508b565b60008060008481526020019081526020016000209050600081600001541415611108576040517f08c379a00000000000000000000000000000000000000000000000000000000081526004016110ff90611d30565b60405180910390fd5b6002600481111561111c5761111b611698565b5b8160090160009054906101000a900460ff1660048111156111405761113f611698565b5b14611180576040517f08c379a0000000000000000000000000000000000000000000000000000000008152600401611177906121dc565b60405180910390fd5b8060010160009054906101000a900473ffffffffffffffffffffffffffffffffffffffff1673ffffffffffffffffffffffffffffffffffffffff163373ffffffffffffffffffffffffffffffffffffffff16148061122d57508060020160009054906101000a900473ffffffffffffffffffffffffffffffffffffffff1673ffffffffffffffffffffffffffffffffffffffff163373ffffffffffffffffffffffffffffffffffffffff16145b61126c576040517f08c379a00000000000000000000000000000000000000000000000000000000081526004016112639061226e565b60405180910390fd5b60038160090160006101000a81548160ff0219169083600481111561129457611293611698565b5b0217905550827f1679538ffa1c48f89fe863a0a8dee07edf1ccb895329e34ede2a9edfc96e5b62836040516112c9919061228e565b60405180910390a2505050565b8280546112e290611cb2565b90600052602060002090601f016020900481019282611304576000855561134b565b82601f1061131d57805160ff191683800117855561134b565b8280016001018555821561134b579182015b8281111561134a57825182559160200191906001019061132f565b5b509050611358919061135c565b5090565b5b8082111561137557600081600090555060010161135d565b5090565b6000604051905090565b600080fd5b600080fd5b6000819050919050565b6113a08161138d565b81146113ab57600080fd5b50565b6000813590506113bd81611397565b92915050565b600073ffffffffffffffffffffffffffffffffffffffff82169050919050565b60006113ee826113c3565b9050919050565b6113fe816113e3565b811461140957600080fd5b50565b60008135905061141b816113f5565b92915050565b600080fd5b600080fd5b6000601f19601f8301169050919050565b7f4e487b7100000000000000000000000000000000000000000000000000000000600052604160045260246000fd5b6114748261142b565b810181811067ffffffffffffffff821117156114935761149261143c565b5b80604052505050565b60006114a6611379565b90506114b2828261146b565b919050565b600067ffffffffffffffff8211156114d2576114d161143c565b5b6114db8261142b565b9050602081019050919050565b82818337600083830152505050565b600061150a611505846114b7565b61149c565b90508281526020810184848401111561152657611525611426565b5b6115318482856114e8565b509392505050565b600082601f83011261154e5761154d611421565b5b813561155e8482602086016114f7565b91505092915050565b60008060008060008060008060006101208a8c03121561158a57611589611383565b5b60006115988c828d016113ae565b99505060206115a98c828d0161140c565b98505060406115ba8c828d0161140c565b97505060606115cb8c828d016113ae565b96505060806115dc8c828d016113ae565b95505060a06115ed8c828d016113ae565b94505060c06115fe8c828d016113ae565b93505060e061160f8c828d016113ae565b9250506101008a013567ffffffffffffffff81111561163157611630611388565b5b61163d8c828d01611539565b9150509295985092959850929598565b60006020828403121561166357611662611383565b5b6000611671848285016113ae565b91505092915050565b611683816113e3565b82525050565b6116928161138d565b82525050565b7f4e487b7100000000000000000000000000000000000000000000000000000000600052602160045260246000fd5b600581106116d8576116d7611698565b5b50565b60008190506116e9826116c7565b919050565b60006116f9826116db565b9050919050565b611709816116ee565b82525050565b600081519050919050565b600082825260208201905092915050565b60005b8381101561174957808201518184015260208101905061172e565b83811115611758576000848401525b50505050565b60006117698261170f565b611773818561171a565b935061178381856020860161172b565b61178c8161142b565b840191505092915050565b6000610140820190506117ad600083018d61167a565b6117ba602083018c61167a565b6117c7604083018b611689565b6117d4606083018a611689565b6117e16080830189611689565b6117ee60a0830188611689565b6117fb60c0830187611689565b61180860e0830186611689565b611816610100830185611700565b818103610120830152611829818461175e565b90509b9a5050505050505050505050565b600060208201905061184f600083018461167a565b92915050565b60006101608201905061186b600083018e611689565b611878602083018d61167a565b611885604083018c61167a565b611892606083018b611689565b61189f608083018a611689565b6118ac60a0830189611689565b6118b960c0830188611689565b6118c660e0830187611689565b6118d4610100830186611689565b6118e2610120830185611700565b8181036101408301526118f5818461175e565b90509c9b505050505050505050505050565b6000806040838503121561191e5761191d611383565b5b600061192c858286016113ae565b925050602083013567ffffffffffffffff81111561194d5761194c611388565b5b61195985828601611539565b9150509250929050565b7f456c2049442064656c20636f6e747261746f20646562652073657220706f736960008201527f7469766f00000000000000000000000000000000000000000000000000000000602082015250565b60006119bf60248361171a565b91506119ca82611963565b604082019050919050565b600060208201905081810360008301526119ee816119b2565b9050919050565b7f456c2049442064656c20636f6e747261746f2079612065786973746500000000600082015250565b6000611a2b601c8361171a565b9150611a36826119f5565b602082019050919050565b60006020820190508181036000830152611a5a81611a1e565b9050919050565b7f446972656363696f6e2064652070726f706965746172696f206e6f2076616c6960008201527f6461000000000000000000000000000000000000000000000000000000000000602082015250565b6000611abd60228361171a565b9150611ac882611a61565b604082019050919050565b60006020820190508181036000830152611aec81611ab0565b9050919050565b7f446972656363696f6e20646520696e7175696c696e6f206e6f2076616c696461600082015250565b6000611b2960208361171a565b9150611b3482611af3565b602082019050919050565b60006020820190508181036000830152611b5881611b1c565b9050919050565b7f4c612066656368612064652066696e616c697a6163696f6e206465626520736560008201527f7220706f73746572696f722061206c6120666563686120646520696e6963696f602082015250565b6000611bbb60408361171a565b9150611bc682611b5f565b604082019050919050565b60006020820190508181036000830152611bea81611bae565b9050919050565b7f456c20696d706f7274652064656c20616c7175696c657220646562652073657260008201527f20706f73697469766f0000000000000000000000000000000000000000000000602082015250565b6000611c4d60298361171a565b9150611c5882611bf1565b604082019050919050565b60006020820190508181036000830152611c7c81611c40565b9050919050565b7f4e487b7100000000000000000000000000000000000000000000000000000000600052602260045260246000fd5b60006002820490506001821680611cca57607f821691505b60208210811415611cde57611cdd611c83565b5b50919050565b7f456c20636f6e747261746f206e6f206578697374650000000000000000000000600082015250565b6000611d1a60158361171a565b9150611d2582611ce4565b602082019050919050565b60006020820190508181036000830152611d4981611d0d565b9050919050565b7f456c20636f6e747261746f2064656265206573746172206170726f6261646f2060008201527f6f2061637469766f000000000000000000000000000000000000000000000000602082015250565b6000611dac60288361171a565b9150611db782611d50565b604082019050919050565b60006020820190508181036000830152611ddb81611d9f565b9050919050565b7f536f6c6f20656c20696e7175696c696e6f20707565646520686163657220706160008201527f676f730000000000000000000000000000000000000000000000000000000000602082015250565b6000611e3e60238361171a565b9150611e4982611de2565b604082019050919050565b60006020820190508181036000830152611e6d81611e31565b9050919050565b7f4e487b7100000000000000000000000000000000000000000000000000000000600052601160045260246000fd5b6000611eae8261138d565b9150611eb98361138d565b9250827fffffffffffffffffffffffffffffffffffffffffffffffffffffffffffffffff03821115611eee57611eed611e74565b5b828201905092915050565b7f456c207072696d6572207061676f206465626520696e636c75697220656c206460008201527f65706f7369746f207920656c207072696d6572206d657320646520616c71756960208201527f6c65722e00000000000000000000000000000000000000000000000000000000604082015250565b6000611f7b60448361171a565b9150611f8682611ef9565b606082019050919050565b60006020820190508181036000830152611faa81611f6e565b9050919050565b7f456c207061676f20646562652073657220616c206d656e6f7320656c206d6f6e60008201527f746f2064656c20616c7175696c65722e00000000000000000000000000000000602082015250565b600061200d60308361171a565b915061201882611fb1565b604082019050919050565b6000602082019050818103600083015261203c81612000565b9050919050565b60006040820190506120586000830185611689565b6120656020830184611689565b9392505050565b7f456c20636f6e747261746f206e6f206573746120656e2065737461646f20706560008201527f6e6469656e746500000000000000000000000000000000000000000000000000602082015250565b60006120c860278361171a565b91506120d38261206c565b604082019050919050565b600060208201905081810360008301526120f7816120bb565b9050919050565b7f536f6c6f20656c20696e7175696c696e6f207075656465206170726f6261722060008201527f656c20636f6e747261746f2e0000000000000000000000000000000000000000602082015250565b600061215a602c8361171a565b9150612165826120fe565b604082019050919050565b600060208201905081810360008301526121898161214d565b9050919050565b7f456c20636f6e747261746f20646562652065737461722061637469766f2e0000600082015250565b60006121c6601e8361171a565b91506121d182612190565b602082019050919050565b600060208201905081810360008301526121f5816121b9565b9050919050565b7f536f6c6f20656c2070726f706965746172696f206f20656c20696e7175696c6960008201527f6e6f2070756564656e2072657363696e64697220656c20636f6e747261746f00602082015250565b6000612258603f8361171a565b9150612263826121fc565b604082019050919050565b600060208201905081810360008301526122878161224b565b9050919050565b600060208201905081810360008301526122a8818461175e565b90509291505056fea26469706673582212207c596a0726152243795f7a5b4c8f5d8b79e68ecd7f69cda72565c234e27f4a9564736f6c634300080a0033",
  "immutableReferences": {},
  "source": "// SPDX-License-Identifier: MIT\r\npragma solidity ^0.8.10;\r\n\r\n/**\r\n * @title RentalContract\r\n * @dev Smart contract for managing rental agreements\r\n */\r\ncontract RentalContract {\r\n    // Contract states\r\n    enum ContractState { Pending, Approved, Active, Terminated, Expired }\r\n    \r\n    // Contract structure\r\n    struct RentalAgreement {\r\n        uint256 contractId;        // Identificacin del contrato en el sistema convencional\r\n        address landlord;          // Direccin de la billetera del propietario de la propiedad\r\n        address tenant;            // Direccin de la billetera del inquilino\r\n        uint256 propertyId;        // Identificacin del inmueble en el sistema convencional\r\n        uint256 rentAmount;        // Monto del alquiler mensual (en wei)\r\n        uint256 depositAmount;     // Monto del depsito de seguridad (en wei)\r\n        uint256 startDate;         // Fecha de inicio del perodo de alquiler (marca de tiempo)\r\n        uint256 endDate;           // Fecha de finalizacin del perodo de alquiler (marca de tiempo)\r\n        uint256 lastPaymentDate;   // Fecha del ltimo pago (sello de tiempo)\r\n        ContractState state;       // Estado actual del contrato\r\n        string termsHash;          // IPFS hash of the contract terms documentHash IPFS del documento de trminos del contrato\r\n    }\r\n    \r\n    // Mapping from contract ID to rental agreement\r\n    mapping(uint256 => RentalAgreement) public rentalAgreements;\r\n    // Owner of the contract\r\n    address public owner;\r\n\r\n    // Events\r\n    event ContractCreated(uint256 indexed contractId, address indexed landlord, address indexed tenant);\r\n    event ContractApproved(uint256 indexed contractId);\r\n    event ContractActivated(uint256 indexed contractId);\r\n    event PaymentReceived(uint256 indexed contractId, uint256 amount, uint256 timestamp);\r\n    event ContractTerminated(uint256 indexed contractId, string reason);\r\n    event ContractExpired(uint256 indexed contractId);\r\n    /**\r\n     * @dev Constructor to initialize the contract\r\n     */\r\n    constructor() {\r\n        owner = msg.sender;\r\n    }\r\n\r\n    /**\r\n     * @dev Create a new rental contract\r\n     */\r\n    function createContract(\r\n        uint256 _contractId,\r\n        address _landlord,\r\n        address _tenant,\r\n        uint256 _propertyId,\r\n        uint256 _rentAmount,\r\n        uint256 _depositAmount,\r\n        uint256 _startDate,\r\n        uint256 _endDate,\r\n        string memory _termsHash\r\n    ) public {\r\n        require(_contractId > 0, \"El ID del contrato debe ser positivo\");\r\n        require(rentalAgreements[_contractId].contractId == 0, \"El ID del contrato ya existe\");\r\n        require(_landlord != address(0), \"Direccion de propietario no valida\");\r\n        require(_tenant != address(0), \"Direccion de inquilino no valida\");\r\n        require(_startDate < _endDate, \"La fecha de finalizacion debe ser posterior a la fecha de inicio\");\r\n        require(_rentAmount > 0, \"El importe del alquiler debe ser positivo\");\r\n\r\n    RentalAgreement memory newAgreement = RentalAgreement({\r\n            contractId: _contractId,\r\n            landlord: _landlord,\r\n            tenant: _tenant,\r\n            propertyId: _propertyId,\r\n            rentAmount: _rentAmount,\r\n            depositAmount: _depositAmount,\r\n            startDate: _startDate,\r\n            endDate: _endDate,\r\n            lastPaymentDate: 0,\r\n            state: ContractState.Pending,\r\n            termsHash: _termsHash\r\n        });\r\n        \r\n        rentalAgreements[_contractId] = newAgreement;\r\n        \r\n        emit ContractCreated(_contractId, _landlord, _tenant);\r\n    }\r\n    \r\n    /**\r\n     * @dev Approve the contract by the tenant\r\n     */\r\n    function approveContract(uint256 _contractId) public {\r\n        RentalAgreement storage agreement = rentalAgreements[_contractId];\r\n        \r\n        require(agreement.contractId != 0, \"El contrato no existe\");\r\n        require(agreement.state == ContractState.Pending, \"El contrato no esta en estado pendiente\");\r\n        require(msg.sender == agreement.tenant, \"Solo el inquilino puede aprobar el contrato.\");\r\n        \r\n        agreement.state = ContractState.Approved;\r\n        \r\n        emit ContractApproved(_contractId);\r\n    }\r\n    \r\n    /**\r\n     * @dev Make a payment to activate the contract or pay monthly rent\r\n     */\r\n    function makePayment(uint256 _contractId) public payable {\r\n        RentalAgreement storage agreement = rentalAgreements[_contractId];\r\n        \r\n        require(agreement.contractId != 0, \"El contrato no existe\");\r\n        require(agreement.state == ContractState.Approved || agreement.state == ContractState.Active, \r\n                \"El contrato debe estar aprobado o activo\");\r\n        require(msg.sender == agreement.tenant, \"Solo el inquilino puede hacer pagos\");\r\n        \r\n        // For first payment, check if deposit + first month rent is paid\r\n        if (agreement.state == ContractState.Approved) {\r\n            require(msg.value >= agreement.rentAmount + agreement.depositAmount, \r\n                    \"El primer pago debe incluir el deposito y el primer mes de alquiler.\");\r\n            \r\n            agreement.state = ContractState.Active;\r\n            emit ContractActivated(_contractId);\r\n        } else {\r\n            // For subsequent payments, check if monthly rent is paid\r\n            require(msg.value >= agreement.rentAmount, \"El pago debe ser al menos el monto del alquiler.\");\r\n        }\r\n        \r\n        // Transfer the payment to the landlord\r\n        payable(agreement.landlord).transfer(msg.value);\r\n        \r\n        // Update last payment date\r\n        agreement.lastPaymentDate = block.timestamp;\r\n        \r\n        emit PaymentReceived(_contractId, msg.value, block.timestamp);\r\n    }\r\n    \r\n    /**\r\n     * @dev Terminate the contract before its end date\r\n     */\r\n    function terminateContract(uint256 _contractId, string memory _reason) public {\r\n        RentalAgreement storage agreement = rentalAgreements[_contractId];\r\n        \r\n        require(agreement.contractId != 0, \"El contrato no existe\");\r\n        require(agreement.state == ContractState.Active, \"El contrato debe estar activo.\");\r\n        require(msg.sender == agreement.landlord || msg.sender == agreement.tenant, \r\n                \"Solo el propietario o el inquilino pueden rescindir el contrato\");\r\n        \r\n        agreement.state = ContractState.Terminated;\r\n        \r\n        emit ContractTerminated(_contractId, _reason);\r\n    }\r\n    \r\n    /**\r\n     * @dev Check if a contract has expired and update its state if needed\r\n     */\r\n    function checkExpiration(uint256 _contractId) public {\r\n        RentalAgreement storage agreement = rentalAgreements[_contractId];\r\n        \r\n        require(agreement.contractId != 0, \"El contrato no existe\");\r\n        require(agreement.state == ContractState.Active, \"El contrato debe estar activo.\");\r\n        \r\n        if (block.timestamp > agreement.endDate) {\r\n            agreement.state = ContractState.Expired;\r\n            emit ContractExpired(_contractId);\r\n        }\r\n    }\r\n    \r\n    /**\r\n     * @dev Get contract details\r\n     */\r\n    function getContractDetails(uint256 _contractId) public view returns (\r\n        address landlord,\r\n        address tenant,\r\n        uint256 propertyId,\r\n        uint256 rentAmount,\r\n        uint256 depositAmount,\r\n        uint256 startDate,\r\n        uint256 endDate,\r\n        uint256 lastPaymentDate,\r\n        ContractState state,\r\n        string memory termsHash\r\n    ) {\r\n        RentalAgreement memory agreement = rentalAgreements[_contractId];\r\n        require(agreement.contractId != 0, \"El contrato no existe\");\r\n        \r\n        return (\r\n            agreement.landlord,\r\n            agreement.tenant,\r\n            agreement.propertyId,\r\n            agreement.rentAmount,\r\n            agreement.depositAmount,\r\n            agreement.startDate,\r\n            agreement.endDate,\r\n            agreement.lastPaymentDate,\r\n            agreement.state,\r\n            agreement.termsHash\r\n        );\r\n    }\r\n}",
  "sourcePath": "D:\\proygrupalsw\\rentals\\assets\\rentals\\contracts\\RentalContract.sol",
  "compiler": {
    "name": "solc",
    "version": "0.8.10+commit.fc410830.Emscripten.clang"
  },
  "schemaVersion": "3.4.16",
  "updatedAt": "2025-06-23T22:27:38.499Z",
  "networkType": "ethereum",
  "devdoc": {
    "details": "Smart contract for managing rental agreements",
    "kind": "dev",
    "methods": {
      "approveContract(uint256)": {
        "details": "Approve the contract by the tenant"
      },
      "checkExpiration(uint256)": {
        "details": "Check if a contract has expired and update its state if needed"
      },
      "constructor": {
        "details": "Constructor to initialize the contract"
      },
      "createContract(uint256,address,address,uint256,uint256,uint256,uint256,uint256,string)": {
        "details": "Create a new rental contract"
      },
      "getContractDetails(uint256)": {
        "details": "Get contract details"
      },
      "makePayment(uint256)": {
        "details": "Make a payment to activate the contract or pay monthly rent"
      },
      "terminateContract(uint256,string)": {
        "details": "Terminate the contract before its end date"
      }
    },
    "title": "RentalContract",
    "version": 1
  },
  "userdoc": {
    "kind": "user",
    "methods": {},
    "version": 1
  }
}